{
  "_format": "hh-sol-artifact-1",
  "contractName": "SignatureVerifier",
  "sourceName": "contracts/SignatureVerifier.sol",
  "abi": [
    {
      "inputs": [],
      "stateMutability": "nonpayable",
      "type": "constructor"
    },
    {
      "inputs": [],
      "name": "ECDSAInvalidSignature",
      "type": "error"
    },
    {
      "inputs": [
        {
          "internalType": "uint256",
          "name": "length",
          "type": "uint256"
        }
      ],
      "name": "ECDSAInvalidSignatureLength",
      "type": "error"
    },
    {
      "inputs": [
        {
          "internalType": "bytes32",
          "name": "s",
          "type": "bytes32"
        }
      ],
      "name": "ECDSAInvalidSignatureS",
      "type": "error"
    },
    {
      "inputs": [
        {
          "internalType": "address",
          "name": "",
          "type": "address"
        },
        {
          "internalType": "address",
          "name": "",
          "type": "address"
        }
      ],
      "name": "INVALID_SIGNATURE",
      "type": "error"
    },
    {
      "inputs": [],
      "name": "InvalidShortString",
      "type": "error"
    },
    {
      "inputs": [
        {
          "internalType": "string",
          "name": "str",
          "type": "string"
        }
      ],
      "name": "StringTooLong",
      "type": "error"
    },
    {
      "anonymous": false,
      "inputs": [],
      "name": "EIP712DomainChanged",
      "type": "event"
    },
    {
      "inputs": [],
      "name": "eip712Domain",
      "outputs": [
        {
          "internalType": "bytes1",
          "name": "fields",
          "type": "bytes1"
        },
        {
          "internalType": "string",
          "name": "name",
          "type": "string"
        },
        {
          "internalType": "string",
          "name": "version",
          "type": "string"
        },
        {
          "internalType": "uint256",
          "name": "chainId",
          "type": "uint256"
        },
        {
          "internalType": "address",
          "name": "verifyingContract",
          "type": "address"
        },
        {
          "internalType": "bytes32",
          "name": "salt",
          "type": "bytes32"
        },
        {
          "internalType": "uint256[]",
          "name": "extensions",
          "type": "uint256[]"
        }
      ],
      "stateMutability": "view",
      "type": "function"
    },
    {
      "inputs": [
        {
          "components": [
            {
              "internalType": "string",
              "name": "name",
              "type": "string"
            },
            {
              "internalType": "string",
              "name": "serial",
              "type": "string"
            },
            {
              "internalType": "address",
              "name": "owner",
              "type": "address"
            }
          ],
          "internalType": "struct SignatureVerifier.Asset",
          "name": "asset",
          "type": "tuple"
        },
        {
          "internalType": "bytes",
          "name": "signature",
          "type": "bytes"
        },
        {
          "internalType": "address",
          "name": "expectedSigner",
          "type": "address"
        }
      ],
      "name": "verifyAssetSignature",
      "outputs": [
        {
          "internalType": "bool",
          "name": "",
          "type": "bool"
        }
      ],
      "stateMutability": "view",
      "type": "function"
    }
  ],
  "bytecode": "0x61016060405234801561001157600080fd5b50604080518082018252600e81526d041737365744f776e6572736869760941b602080830191909152825180840190935260018352603160f81b908301529061005b826000610105565b6101205261006a816001610105565b61014052815160208084019190912060e052815190820120610100524660a0526100f760e05161010051604080517f8b73c3c69bb8fe3d512ecc4cf759cc79239f7b179b0ffacaa9a75d522b39400f60208201529081019290925260608201524660808201523060a082015260009060c00160405160208183030381529060405280519060200120905090565b60805250503060c05261034e565b60006020835110156101215761011a83610138565b9050610132565b8161012c848261021e565b5060ff90505b92915050565b600080829050601f8151111561016c578260405163305a27a960e01b815260040161016391906102dc565b60405180910390fd5b80516101778261032a565b179392505050565b634e487b7160e01b600052604160045260246000fd5b600181811c908216806101a957607f821691505b6020821081036101c957634e487b7160e01b600052602260045260246000fd5b50919050565b601f82111561021957806000526020600020601f840160051c810160208510156101f65750805b601f840160051c820191505b818110156102165760008155600101610202565b50505b505050565b81516001600160401b038111156102375761023761017f565b61024b816102458454610195565b846101cf565b6020601f82116001811461027f57600083156102675750848201515b600019600385901b1c1916600184901b178455610216565b600084815260208120601f198516915b828110156102af578785015182556020948501946001909201910161028f565b50848210156102cd5786840151600019600387901b60f8161c191681555b50505050600190811b01905550565b602081526000825180602084015260005b8181101561030a57602081860181015160408684010152016102ed565b506000604082850101526040601f19601f83011684010191505092915050565b805160208083015191908110156101c95760001960209190910360031b1b16919050565b60805160a05160c05160e051610100516101205161014051610a996103a86000396000610226015260006101f401526000610449015260006104210152600061037c015260006103a6015260006103d00152610a996000f3fe608060405234801561001057600080fd5b50600436106100365760003560e01c806384b0196e1461003b578063df9cca661461005f575b600080fd5b610043610082565b6040516100569796959493929190610784565b60405180910390f35b61007261006d366004610929565b6100e4565b6040519015158152602001610056565b6000606080600080600060606100966101ed565b61009e61021f565b604080516000808252602082019092527f0f000000000000000000000000000000000000000000000000000000000000009b939a50919850469750309650945092509050565b825180516020918201208185015180519083012060408087015181517fbe219a92565036dfb3fd25e53b5835f0eef9d7ac1a2f77e529f87a26225b5268958101959095529084019290925260608301526001600160a01b03166080820152600090819060a001604051602081830303815290604052805190602001209050600061016d8261024c565b9050600061017b828761029a565b9050846001600160a01b0316816001600160a01b0316146101e0576040517f0557fa7d0000000000000000000000000000000000000000000000000000000081526001600160a01b038083166004830152861660248201526044015b60405180910390fd5b5060019695505050505050565b606061021a7f000000000000000000000000000000000000000000000000000000000000000060006102c4565b905090565b606061021a7f000000000000000000000000000000000000000000000000000000000000000060016102c4565b600061029461025961036f565b836040517f19010000000000000000000000000000000000000000000000000000000000008152600281019290925260228201526042902090565b92915050565b6000806000806102aa868661049a565b9250925092506102ba82826104e7565b5090949350505050565b606060ff83146102de576102d7836105ef565b9050610294565b8180546102ea90610a13565b80601f016020809104026020016040519081016040528092919081815260200182805461031690610a13565b80156103635780601f1061033857610100808354040283529160200191610363565b820191906000526020600020905b81548152906001019060200180831161034657829003601f168201915b50505050509050610294565b6000306001600160a01b037f0000000000000000000000000000000000000000000000000000000000000000161480156103c857507f000000000000000000000000000000000000000000000000000000000000000046145b156103f257507f000000000000000000000000000000000000000000000000000000000000000090565b61021a604080517f8b73c3c69bb8fe3d512ecc4cf759cc79239f7b179b0ffacaa9a75d522b39400f60208201527f0000000000000000000000000000000000000000000000000000000000000000918101919091527f000000000000000000000000000000000000000000000000000000000000000060608201524660808201523060a082015260009060c00160405160208183030381529060405280519060200120905090565b600080600083516041036104d45760208401516040850151606086015160001a6104c68882858561062e565b9550955095505050506104e0565b50508151600091506002905b9250925092565b60008260038111156104fb576104fb610a4d565b03610504575050565b600182600381111561051857610518610a4d565b0361054f576040517ff645eedf00000000000000000000000000000000000000000000000000000000815260040160405180910390fd5b600282600381111561056357610563610a4d565b0361059d576040517ffce698f7000000000000000000000000000000000000000000000000000000008152600481018290526024016101d7565b60038260038111156105b1576105b1610a4d565b036105eb576040517fd78bce0c000000000000000000000000000000000000000000000000000000008152600481018290526024016101d7565b5050565b606060006105fc836106fd565b604080516020808252818301909252919250600091906020820181803683375050509182525060208101929092525090565b600080807f7fffffffffffffffffffffffffffffff5d576e7357a4501ddfe92f46681b20a084111561066957506000915060039050826106f3565b604080516000808252602082018084528a905260ff891692820192909252606081018790526080810186905260019060a0016020604051602081039080840390855afa1580156106bd573d6000803e3d6000fd5b5050604051601f1901519150506001600160a01b0381166106e9575060009250600191508290506106f3565b9250600091508190505b9450945094915050565b600060ff8216601f811115610294576040517fb3512b0c00000000000000000000000000000000000000000000000000000000815260040160405180910390fd5b6000815180845260005b8181101561076457602081850181015186830182015201610748565b506000602082860101526020601f19601f83011685010191505092915050565b7fff000000000000000000000000000000000000000000000000000000000000008816815260e0602082015260006107bf60e083018961073e565b82810360408401526107d1818961073e565b606084018890526001600160a01b038716608085015260a0840186905283810360c08501528451808252602080870193509091019060005b81811015610827578351835260209384019390920191600101610809565b50909b9a5050505050505050505050565b634e487b7160e01b600052604160045260246000fd5b6040516060810167ffffffffffffffff8111828210171561087157610871610838565b60405290565b600082601f83011261088857600080fd5b81356020830160008067ffffffffffffffff8411156108a9576108a9610838565b50604051601f19601f85018116603f0116810181811067ffffffffffffffff821117156108d8576108d8610838565b6040528381529050808284018710156108f057600080fd5b838360208301376000602085830101528094505050505092915050565b80356001600160a01b038116811461092457600080fd5b919050565b60008060006060848603121561093e57600080fd5b833567ffffffffffffffff81111561095557600080fd5b84016060818703121561096757600080fd5b61096f61084e565b813567ffffffffffffffff81111561098657600080fd5b61099288828501610877565b825250602082013567ffffffffffffffff8111156109af57600080fd5b6109bb88828501610877565b6020830152506109cd6040830161090d565b6040820152935050602084013567ffffffffffffffff8111156109ef57600080fd5b6109fb86828701610877565b925050610a0a6040850161090d565b90509250925092565b600181811c90821680610a2757607f821691505b602082108103610a4757634e487b7160e01b600052602260045260246000fd5b50919050565b634e487b7160e01b600052602160045260246000fdfea2646970667358221220d5d9c088c6724f5c25de9503f8d41f6a020dac5a1160e39b1af39128a30ebee964736f6c634300081b0033",
  "linkReferences": {},
  "deployedLinkReferences": {}
}