{
  "_format": "hh-sol-artifact-1",
  "contractName": "Ownership",
  "sourceName": "contracts/Ownership.sol",
  "abi": [
    {
      "anonymous": false,
      "inputs": [
        {
          "indexed": false,
          "internalType": "address",
          "name": "owner",
          "type": "address"
        }
      ],
      "name": "Owner",
      "type": "event"
    },
    {
      "inputs": [
        {
          "internalType": "string",
          "name": "",
          "type": "string"
        }
      ],
      "name": "assetOwner",
      "outputs": [
        {
          "internalType": "address",
          "name": "",
          "type": "address"
        }
      ],
      "stateMutability": "view",
      "type": "function"
    },
    {
      "inputs": [
        {
          "internalType": "string",
          "name": "assetId",
          "type": "string"
        }
      ],
      "name": "getOwner",
      "outputs": [
        {
          "internalType": "address",
          "name": "",
          "type": "address"
        }
      ],
      "stateMutability": "view",
      "type": "function"
    },
    {
      "inputs": [
        {
          "internalType": "string",
          "name": "assetId",
          "type": "string"
        }
      ],
      "name": "registerAsset",
      "outputs": [],
      "stateMutability": "nonpayable",
      "type": "function"
    },
    {
      "inputs": [
        {
          "internalType": "string",
          "name": "assetId",
          "type": "string"
        }
      ],
      "name": "verifyOwnership",
      "outputs": [
        {
          "internalType": "bool",
          "name": "",
          "type": "bool"
        }
      ],
      "stateMutability": "view",
      "type": "function"
    }
  ],
  "bytecode": "0x6080604052348015600f57600080fd5b506103ce8061001f6000396000f3fe608060405234801561001057600080fd5b506004361061004c5760003560e01c80631ec0408114610051578063293f854e146100665780634aaf4a121461008e578063a067599d146100b9575b600080fd5b61006461005f3660046102b0565b6100ed565b005b6100796100743660046102b0565b610215565b60405190151581526020015b60405180910390f35b6100a161009c3660046102b0565b610251565b6040516001600160a01b039091168152602001610085565b6100a16100c73660046102b0565b80516020818301810180516000825292820191909301209152546001600160a01b031681565b60006001600160a01b03166000826040516101089190610369565b908152604051908190036020019020546001600160a01b03161461018c576040517f08c379a000000000000000000000000000000000000000000000000000000000815260206004820152601260248201527f416c726561647920726567697374657265640000000000000000000000000000604482015260640160405180910390fd5b3360008260405161019d9190610369565b9081526040516020918190038201812080547fffffffffffffffffffffffff0000000000000000000000000000000000000000166001600160a01b0394909416939093179092553382527fa5e220c2c27d986cc8efeafa8f34ba6ea6bf96a34e146b29b6bdd8587771b130910160405180910390a150565b6000336001600160a01b03166000836040516102319190610369565b908152604051908190036020019020546001600160a01b03161492915050565b600080826040516102629190610369565b908152604051908190036020019020546001600160a01b031692915050565b7f4e487b7100000000000000000000000000000000000000000000000000000000600052604160045260246000fd5b6000602082840312156102c257600080fd5b813567ffffffffffffffff8111156102d957600080fd5b8201601f810184136102ea57600080fd5b803567ffffffffffffffff81111561030457610304610281565b604051601f8201601f19908116603f0116810167ffffffffffffffff8111828210171561033357610333610281565b60405281815282820160200186101561034b57600080fd5b81602084016020830137600091810160200191909152949350505050565b6000825160005b8181101561038a5760208186018101518583015201610370565b50600092019182525091905056fea264697066735822122010a4748f136edbd565265120d6f96b5da8161c2c3e68dbcb74932a2dab03b53a64736f6c634300081b0033",
  "linkReferences": {},
  "deployedLinkReferences": {}
}