{
  "_format": "hh-sol-artifact-1",
  "contractName": "SignatureVerifier",
  "sourceName": "contracts/SignatureVerifier.sol",
  "abi": [
    {
      "inputs": [],
      "stateMutability": "nonpayable",
      "type": "constructor"
    },
    {
      "inputs": [],
      "name": "ECDSAInvalidSignature",
      "type": "error"
    },
    {
      "inputs": [
        {
          "internalType": "uint256",
          "name": "length",
          "type": "uint256"
        }
      ],
      "name": "ECDSAInvalidSignatureLength",
      "type": "error"
    },
    {
      "inputs": [
        {
          "internalType": "bytes32",
          "name": "s",
          "type": "bytes32"
        }
      ],
      "name": "ECDSAInvalidSignatureS",
      "type": "error"
    },
    {
      "inputs": [],
      "name": "InvalidShortString",
      "type": "error"
    },
    {
      "inputs": [
        {
          "internalType": "string",
          "name": "str",
          "type": "string"
        }
      ],
      "name": "StringTooLong",
      "type": "error"
    },
    {
      "anonymous": false,
      "inputs": [],
      "name": "EIP712DomainChanged",
      "type": "event"
    },
    {
      "inputs": [],
      "name": "eip712Domain",
      "outputs": [
        {
          "internalType": "bytes1",
          "name": "fields",
          "type": "bytes1"
        },
        {
          "internalType": "string",
          "name": "name",
          "type": "string"
        },
        {
          "internalType": "string",
          "name": "version",
          "type": "string"
        },
        {
          "internalType": "uint256",
          "name": "chainId",
          "type": "uint256"
        },
        {
          "internalType": "address",
          "name": "verifyingContract",
          "type": "address"
        },
        {
          "internalType": "bytes32",
          "name": "salt",
          "type": "bytes32"
        },
        {
          "internalType": "uint256[]",
          "name": "extensions",
          "type": "uint256[]"
        }
      ],
      "stateMutability": "view",
      "type": "function"
    },
    {
      "inputs": [
        {
          "components": [
            {
              "internalType": "string",
              "name": "name",
              "type": "string"
            },
            {
              "internalType": "string",
              "name": "serial",
              "type": "string"
            },
            {
              "internalType": "address",
              "name": "owner",
              "type": "address"
            }
          ],
          "internalType": "struct SignatureVerifier.Asset",
          "name": "asset",
          "type": "tuple"
        },
        {
          "internalType": "bytes",
          "name": "signature",
          "type": "bytes"
        },
        {
          "internalType": "address",
          "name": "expectedSigner",
          "type": "address"
        }
      ],
      "name": "verifyAssetSignature",
      "outputs": [
        {
          "internalType": "bool",
          "name": "",
          "type": "bool"
        }
      ],
      "stateMutability": "view",
      "type": "function"
    }
  ],
  "bytecode": "0x61016060405234801561001157600080fd5b50604080518082018252600e81526d041737365744f776e6572736869760941b602080830191909152825180840190935260018352603160f81b908301529061005b826000610105565b6101205261006a816001610105565b61014052815160208084019190912060e052815190820120610100524660a0526100f760e05161010051604080517f8b73c3c69bb8fe3d512ecc4cf759cc79239f7b179b0ffacaa9a75d522b39400f60208201529081019290925260608201524660808201523060a082015260009060c00160405160208183030381529060405280519060200120905090565b60805250503060c05261034e565b60006020835110156101215761011a83610138565b9050610132565b8161012c848261021e565b5060ff90505b92915050565b600080829050601f8151111561016c578260405163305a27a960e01b815260040161016391906102dc565b60405180910390fd5b80516101778261032a565b179392505050565b634e487b7160e01b600052604160045260246000fd5b600181811c908216806101a957607f821691505b6020821081036101c957634e487b7160e01b600052602260045260246000fd5b50919050565b601f82111561021957806000526020600020601f840160051c810160208510156101f65750805b601f840160051c820191505b818110156102165760008155600101610202565b50505b505050565b81516001600160401b038111156102375761023761017f565b61024b816102458454610195565b846101cf565b6020601f82116001811461027f57600083156102675750848201515b600019600385901b1c1916600184901b178455610216565b600084815260208120601f198516915b828110156102af578785015182556020948501946001909201910161028f565b50848210156102cd5786840151600019600387901b60f8161c191681555b50505050600190811b01905550565b602081526000825180602084015260005b8181101561030a57602081860181015160408684010152016102ed565b506000604082850101526040601f19601f83011684010191505092915050565b805160208083015191908110156101c95760001960209190910360031b1b16919050565b60805160a05160c05160e051610100516101205161014051610a476103a860003960006101cf0152600061019d015260006103f2015260006103ca015260006103250152600061034f015260006103790152610a476000f3fe608060405234801561001057600080fd5b50600436106100365760003560e01c806384b0196e1461003b578063df9cca661461005f575b600080fd5b610043610082565b6040516100569796959493929190610732565b60405180910390f35b61007261006d3660046108d7565b6100e4565b6040519015158152602001610056565b600060608060008060006060610096610196565b61009e6101c8565b604080516000808252602082019092527f0f000000000000000000000000000000000000000000000000000000000000009b939a50919850469750309650945092509050565b825180516020918201208185015180519083012060408087015181517fbe219a92565036dfb3fd25e53b5835f0eef9d7ac1a2f77e529f87a26225b5268958101959095529084019290925260608301526001600160a01b03166080820152600090819060a001604051602081830303815290604052805190602001209050600061016d826101f5565b9050600061017b8287610243565b6001600160a01b039081169086161493505050509392505050565b60606101c37f0000000000000000000000000000000000000000000000000000000000000000600061026d565b905090565b60606101c37f0000000000000000000000000000000000000000000000000000000000000000600161026d565b600061023d610202610318565b836040517f19010000000000000000000000000000000000000000000000000000000000008152600281019290925260228201526042902090565b92915050565b6000806000806102538686610443565b9250925092506102638282610490565b5090949350505050565b606060ff8314610287576102808361059d565b905061023d565b818054610293906109c1565b80601f01602080910402602001604051908101604052809291908181526020018280546102bf906109c1565b801561030c5780601f106102e15761010080835404028352916020019161030c565b820191906000526020600020905b8154815290600101906020018083116102ef57829003601f168201915b5050505050905061023d565b6000306001600160a01b037f00000000000000000000000000000000000000000000000000000000000000001614801561037157507f000000000000000000000000000000000000000000000000000000000000000046145b1561039b57507f000000000000000000000000000000000000000000000000000000000000000090565b6101c3604080517f8b73c3c69bb8fe3d512ecc4cf759cc79239f7b179b0ffacaa9a75d522b39400f60208201527f0000000000000000000000000000000000000000000000000000000000000000918101919091527f000000000000000000000000000000000000000000000000000000000000000060608201524660808201523060a082015260009060c00160405160208183030381529060405280519060200120905090565b6000806000835160410361047d5760208401516040850151606086015160001a61046f888285856105dc565b955095509550505050610489565b50508151600091506002905b9250925092565b60008260038111156104a4576104a46109fb565b036104ad575050565b60018260038111156104c1576104c16109fb565b036104f8576040517ff645eedf00000000000000000000000000000000000000000000000000000000815260040160405180910390fd5b600282600381111561050c5761050c6109fb565b0361054b576040517ffce698f7000000000000000000000000000000000000000000000000000000008152600481018290526024015b60405180910390fd5b600382600381111561055f5761055f6109fb565b03610599576040517fd78bce0c00000000000000000000000000000000000000000000000000000000815260048101829052602401610542565b5050565b606060006105aa836106ab565b604080516020808252818301909252919250600091906020820181803683375050509182525060208101929092525090565b600080807f7fffffffffffffffffffffffffffffff5d576e7357a4501ddfe92f46681b20a084111561061757506000915060039050826106a1565b604080516000808252602082018084528a905260ff891692820192909252606081018790526080810186905260019060a0016020604051602081039080840390855afa15801561066b573d6000803e3d6000fd5b5050604051601f1901519150506001600160a01b038116610697575060009250600191508290506106a1565b9250600091508190505b9450945094915050565b600060ff8216601f81111561023d576040517fb3512b0c00000000000000000000000000000000000000000000000000000000815260040160405180910390fd5b6000815180845260005b81811015610712576020818501810151868301820152016106f6565b506000602082860101526020601f19601f83011685010191505092915050565b7fff000000000000000000000000000000000000000000000000000000000000008816815260e06020820152600061076d60e08301896106ec565b828103604084015261077f81896106ec565b606084018890526001600160a01b038716608085015260a0840186905283810360c08501528451808252602080870193509091019060005b818110156107d55783518352602093840193909201916001016107b7565b50909b9a5050505050505050505050565b634e487b7160e01b600052604160045260246000fd5b6040516060810167ffffffffffffffff8111828210171561081f5761081f6107e6565b60405290565b600082601f83011261083657600080fd5b81356020830160008067ffffffffffffffff841115610857576108576107e6565b50604051601f19601f85018116603f0116810181811067ffffffffffffffff82111715610886576108866107e6565b60405283815290508082840187101561089e57600080fd5b838360208301376000602085830101528094505050505092915050565b80356001600160a01b03811681146108d257600080fd5b919050565b6000806000606084860312156108ec57600080fd5b833567ffffffffffffffff81111561090357600080fd5b84016060818703121561091557600080fd5b61091d6107fc565b813567ffffffffffffffff81111561093457600080fd5b61094088828501610825565b825250602082013567ffffffffffffffff81111561095d57600080fd5b61096988828501610825565b60208301525061097b604083016108bb565b6040820152935050602084013567ffffffffffffffff81111561099d57600080fd5b6109a986828701610825565b9250506109b8604085016108bb565b90509250925092565b600181811c908216806109d557607f821691505b6020821081036109f557634e487b7160e01b600052602260045260246000fd5b50919050565b634e487b7160e01b600052602160045260246000fdfea26469706673582212208f9e15ba2b3317235d55f3b54233e9a30c3d848b910d3b08d9a9804cb1740e9964736f6c634300081b0033",
  "linkReferences": {},
  "deployedLinkReferences": {}
}