{
  "_format": "hh-sol-artifact-1",
  "contractName": "AuthChain",
  "sourceName": "contracts/AuthChain.sol",
  "abi": [
    {
      "inputs": [
        {
          "internalType": "address",
          "name": "_owner",
          "type": "address"
        }
      ],
      "stateMutability": "nonpayable",
      "type": "constructor"
    },
    {
      "inputs": [],
      "name": "ECDSAInvalidSignature",
      "type": "error"
    },
    {
      "inputs": [
        {
          "internalType": "uint256",
          "name": "length",
          "type": "uint256"
        }
      ],
      "name": "ECDSAInvalidSignatureLength",
      "type": "error"
    },
    {
      "inputs": [
        {
          "internalType": "bytes32",
          "name": "s",
          "type": "bytes32"
        }
      ],
      "name": "ECDSAInvalidSignatureS",
      "type": "error"
    },
    {
      "inputs": [],
      "name": "InvalidShortString",
      "type": "error"
    },
    {
      "inputs": [
        {
          "internalType": "address",
          "name": "signer",
          "type": "address"
        },
        {
          "internalType": "bool",
          "name": "result",
          "type": "bool"
        }
      ],
      "name": "InvalidSignature",
      "type": "error"
    },
    {
      "inputs": [
        {
          "internalType": "string",
          "name": "str",
          "type": "string"
        }
      ],
      "name": "StringTooLong",
      "type": "error"
    },
    {
      "anonymous": false,
      "inputs": [
        {
          "indexed": false,
          "internalType": "bytes32",
          "name": "structHash",
          "type": "bytes32"
        },
        {
          "indexed": false,
          "internalType": "bytes32",
          "name": "digest",
          "type": "bytes32"
        },
        {
          "indexed": false,
          "internalType": "address",
          "name": "signer",
          "type": "address"
        }
      ],
      "name": "DebugHash",
      "type": "event"
    },
    {
      "anonymous": false,
      "inputs": [],
      "name": "EIP712DomainChanged",
      "type": "event"
    },
    {
      "anonymous": false,
      "inputs": [
        {
          "indexed": false,
          "internalType": "string",
          "name": "name",
          "type": "string"
        },
        {
          "indexed": true,
          "internalType": "bytes32",
          "name": "uniqueId",
          "type": "bytes32"
        },
        {
          "indexed": true,
          "internalType": "address",
          "name": "owner",
          "type": "address"
        }
      ],
      "name": "ItemCreated",
      "type": "event"
    },
    {
      "inputs": [
        {
          "components": [
            {
              "internalType": "string",
              "name": "name",
              "type": "string"
            },
            {
              "internalType": "string",
              "name": "uniqueId",
              "type": "string"
            },
            {
              "internalType": "string",
              "name": "serial",
              "type": "string"
            },
            {
              "internalType": "uint256",
              "name": "date",
              "type": "uint256"
            },
            {
              "internalType": "address",
              "name": "owner",
              "type": "address"
            },
            {
              "internalType": "string[]",
              "name": "metadata",
              "type": "string[]"
            }
          ],
          "internalType": "struct AuthChain.Certificate",
          "name": "certificate",
          "type": "tuple"
        },
        {
          "internalType": "bytes",
          "name": "signature",
          "type": "bytes"
        }
      ],
      "name": "createItem",
      "outputs": [],
      "stateMutability": "nonpayable",
      "type": "function"
    },
    {
      "inputs": [],
      "name": "eip712Domain",
      "outputs": [
        {
          "internalType": "bytes1",
          "name": "fields",
          "type": "bytes1"
        },
        {
          "internalType": "string",
          "name": "name",
          "type": "string"
        },
        {
          "internalType": "string",
          "name": "version",
          "type": "string"
        },
        {
          "internalType": "uint256",
          "name": "chainId",
          "type": "uint256"
        },
        {
          "internalType": "address",
          "name": "verifyingContract",
          "type": "address"
        },
        {
          "internalType": "bytes32",
          "name": "salt",
          "type": "bytes32"
        },
        {
          "internalType": "uint256[]",
          "name": "extensions",
          "type": "uint256[]"
        }
      ],
      "stateMutability": "view",
      "type": "function"
    },
    {
      "inputs": [
        {
          "internalType": "string",
          "name": "itemId",
          "type": "string"
        }
      ],
      "name": "getItem",
      "outputs": [
        {
          "components": [
            {
              "internalType": "string",
              "name": "name",
              "type": "string"
            },
            {
              "internalType": "bytes32",
              "name": "uniqueId",
              "type": "bytes32"
            },
            {
              "internalType": "string",
              "name": "serial",
              "type": "string"
            },
            {
              "internalType": "uint256",
              "name": "date",
              "type": "uint256"
            },
            {
              "internalType": "address",
              "name": "owner",
              "type": "address"
            }
          ],
          "internalType": "struct AuthChain.Item",
          "name": "",
          "type": "tuple"
        }
      ],
      "stateMutability": "view",
      "type": "function"
    },
    {
      "inputs": [],
      "name": "getOwner",
      "outputs": [
        {
          "internalType": "address",
          "name": "",
          "type": "address"
        }
      ],
      "stateMutability": "view",
      "type": "function"
    },
    {
      "inputs": [
        {
          "internalType": "string",
          "name": "id",
          "type": "string"
        }
      ],
      "name": "items",
      "outputs": [
        {
          "internalType": "string",
          "name": "name",
          "type": "string"
        },
        {
          "internalType": "bytes32",
          "name": "uniqueId",
          "type": "bytes32"
        },
        {
          "internalType": "string",
          "name": "serial",
          "type": "string"
        },
        {
          "internalType": "uint256",
          "name": "date",
          "type": "uint256"
        },
        {
          "internalType": "address",
          "name": "owner",
          "type": "address"
        }
      ],
      "stateMutability": "view",
      "type": "function"
    },
    {
      "inputs": [
        {
          "components": [
            {
              "internalType": "string",
              "name": "name",
              "type": "string"
            },
            {
              "internalType": "string",
              "name": "uniqueId",
              "type": "string"
            },
            {
              "internalType": "string",
              "name": "serial",
              "type": "string"
            },
            {
              "internalType": "uint256",
              "name": "date",
              "type": "uint256"
            },
            {
              "internalType": "address",
              "name": "owner",
              "type": "address"
            },
            {
              "internalType": "string[]",
              "name": "metadata",
              "type": "string[]"
            }
          ],
          "internalType": "struct AuthChain.Certificate",
          "name": "certificate",
          "type": "tuple"
        },
        {
          "internalType": "bytes",
          "name": "signature",
          "type": "bytes"
        }
      ],
      "name": "verifyAssetSignature",
      "outputs": [
        {
          "internalType": "bool",
          "name": "",
          "type": "bool"
        },
        {
          "internalType": "bytes32",
          "name": "",
          "type": "bytes32"
        }
      ],
      "stateMutability": "nonpayable",
      "type": "function"
    }
  ],
  "bytecode": "0x61018060405234801561001157600080fd5b5060405161184c38038061184c833981016040819052610030916101ab565b604080518082018252600f81526e086cae4e8d2ccd2c6c2e8ca82eae8d608b1b602080830191909152825180840190935260018352603160f81b908301529061007a826000610131565b61012052610089816001610131565b61014052815160208084019190912060e052815190820120610100524660a05261011660e05161010051604080517f8b73c3c69bb8fe3d512ecc4cf759cc79239f7b179b0ffacaa9a75d522b39400f60208201529081019290925260608201524660808201523060a082015260009060c00160405160208183030381529060405280519060200120905090565b60805250503060c0526001600160a01b0316610160526103aa565b600060208351101561014d5761014683610164565b905061015e565b81610158848261027a565b5060ff90505b92915050565b600080829050601f81511115610198578260405163305a27a960e01b815260040161018f9190610338565b60405180910390fd5b80516101a382610386565b179392505050565b6000602082840312156101bd57600080fd5b81516001600160a01b03811681146101d457600080fd5b9392505050565b634e487b7160e01b600052604160045260246000fd5b600181811c9082168061020557607f821691505b60208210810361022557634e487b7160e01b600052602260045260246000fd5b50919050565b601f82111561027557806000526020600020601f840160051c810160208510156102525750805b601f840160051c820191505b81811015610272576000815560010161025e565b50505b505050565b81516001600160401b03811115610293576102936101db565b6102a7816102a184546101f1565b8461022b565b6020601f8211600181146102db57600083156102c35750848201515b600019600385901b1c1916600184901b178455610272565b600084815260208120601f198516915b8281101561030b57878501518255602094850194600190920191016102eb565b50848210156103295786840151600019600387901b60f8161c191681555b50505050600190811b01905550565b602081526000825180602084015260005b818110156103665760208186018101516040868401015201610349565b506000604082850101526040601f19601f83011684010191505092915050565b805160208083015191908110156102255760001960209190910360031b1b16919050565b60805160a05160c05160e051610100516101205161014051610160516114366104166000396000818161010b015261051901526000610813015260006107e101526000610913015260006108eb01526000610846015260006108700152600061089a01526114366000f3fe608060405234801561001057600080fd5b50600436106100725760003560e01c806384b0196e1161005057806384b0196e146100e3578063893d20e8146100fe578063b6010fcd1461013557600080fd5b80633f5196ab146100775780634909b29b1461008c5780637cb1ba54146100b9575b600080fd5b61008a610085366004610e5e565b610155565b005b61009f61009a366004610f9a565b610296565b6040516100b0959493929190611027565b60405180910390f35b6100cc6100c7366004610e5e565b6103e9565b6040805192151583526020830191909152016100b0565b6100eb61055c565b6040516100b09796959493929190611074565b6040516001600160a01b037f00000000000000000000000000000000000000000000000000000000000000001681526020016100b0565b610148610143366004610f9a565b6105be565b6040516100b09190611128565b60008061016284846103e9565b91509150816101bb5760808401516040517f5d612b590000000000000000000000000000000000000000000000000000000081526001600160a01b03909116600482015282151560248201526044015b60405180910390fd5b6000600285602001516040516101d19190611195565b908152604051908190036020019020855190915081906101f1908261123a565b5060408501516002820190610206908261123a565b506001810182905560808501516004820180547fffffffffffffffffffffffff0000000000000000000000000000000000000000166001600160a01b0390921691821790556060860151600383015560405183907f77712027931935e0b2e88b54b73900719e5e2920017a1899bd0516e273016404906102879085906112f9565b60405180910390a35050505050565b80516020818301810180516002825292820191909301209152805481906102bc906111b1565b80601f01602080910402602001604051908101604052809291908181526020018280546102e8906111b1565b80156103355780601f1061030a57610100808354040283529160200191610335565b820191906000526020600020905b81548152906001019060200180831161031857829003601f168201915b505050505090806001015490806002018054610350906111b1565b80601f016020809104026020016040519081016040528092919081815260200182805461037c906111b1565b80156103c95780601f1061039e576101008083540402835291602001916103c9565b820191906000526020600020905b8154815290600101906020018083116103ac57829003601f168201915b5050505060038301546004909301549192916001600160a01b0316905085565b60008060008460a001516040516020016104039190611385565b60408051808303601f1901815282825280516020918201208851805190830120898301518051908401208a8501518051908501206060808d01516080808f01517f1d62f707996bec2e68227adde500d923521c8e72658f98eee315781c94cf5956898c01528a8a01969096529189019390935287015260a08601526001600160a01b031660c085015260e080850182905283518086039091018152610100909401909252825192019190912090915060006104bd82610762565b905060006104cb82886107b0565b60408051858152602081018590526001600160a01b0383168183015290519192507fecd1875085f403ebfb7a621c8bb0ffb6ce0dea42cc8146380ed1a6988eb15a98919081900360600190a17f00000000000000000000000000000000000000000000000000000000000000006001600160a01b0316816001600160a01b0316148395509550505050509250929050565b6000606080600080600060606105706107da565b61057861080c565b604080516000808252602082019092527f0f000000000000000000000000000000000000000000000000000000000000009b939a50919850469750309650945092509050565b6040805160a0810182526060808252600060208301819052828401829052908201819052608082015290516002906105f7908490611195565b90815260200160405180910390206040518060a0016040529081600082018054610620906111b1565b80601f016020809104026020016040519081016040528092919081815260200182805461064c906111b1565b80156106995780601f1061066e57610100808354040283529160200191610699565b820191906000526020600020905b81548152906001019060200180831161067c57829003601f168201915b50505050508152602001600182015481526020016002820180546106bc906111b1565b80601f01602080910402602001604051908101604052809291908181526020018280546106e8906111b1565b80156107355780601f1061070a57610100808354040283529160200191610735565b820191906000526020600020905b81548152906001019060200180831161071857829003601f168201915b5050509183525050600382015460208201526004909101546001600160a01b031660409091015292915050565b60006107aa61076f610839565b836040517f19010000000000000000000000000000000000000000000000000000000000008152600281019290925260228201526042902090565b92915050565b6000806000806107c08686610964565b9250925092506107d082826109b1565b5090949350505050565b60606108077f00000000000000000000000000000000000000000000000000000000000000006000610ab9565b905090565b60606108077f00000000000000000000000000000000000000000000000000000000000000006001610ab9565b6000306001600160a01b037f00000000000000000000000000000000000000000000000000000000000000001614801561089257507f000000000000000000000000000000000000000000000000000000000000000046145b156108bc57507f000000000000000000000000000000000000000000000000000000000000000090565b610807604080517f8b73c3c69bb8fe3d512ecc4cf759cc79239f7b179b0ffacaa9a75d522b39400f60208201527f0000000000000000000000000000000000000000000000000000000000000000918101919091527f000000000000000000000000000000000000000000000000000000000000000060608201524660808201523060a082015260009060c00160405160208183030381529060405280519060200120905090565b6000806000835160410361099e5760208401516040850151606086015160001a61099088828585610b64565b9550955095505050506109aa565b50508151600091506002905b9250925092565b60008260038111156109c5576109c56113ea565b036109ce575050565b60018260038111156109e2576109e26113ea565b03610a19576040517ff645eedf00000000000000000000000000000000000000000000000000000000815260040160405180910390fd5b6002826003811115610a2d57610a2d6113ea565b03610a67576040517ffce698f7000000000000000000000000000000000000000000000000000000008152600481018290526024016101b2565b6003826003811115610a7b57610a7b6113ea565b03610ab5576040517fd78bce0c000000000000000000000000000000000000000000000000000000008152600481018290526024016101b2565b5050565b606060ff8314610ad357610acc83610c33565b90506107aa565b818054610adf906111b1565b80601f0160208091040260200160405190810160405280929190818152602001828054610b0b906111b1565b8015610b585780601f10610b2d57610100808354040283529160200191610b58565b820191906000526020600020905b815481529060010190602001808311610b3b57829003601f168201915b505050505090506107aa565b600080807f7fffffffffffffffffffffffffffffff5d576e7357a4501ddfe92f46681b20a0841115610b9f5750600091506003905082610c29565b604080516000808252602082018084528a905260ff891692820192909252606081018790526080810186905260019060a0016020604051602081039080840390855afa158015610bf3573d6000803e3d6000fd5b5050604051601f1901519150506001600160a01b038116610c1f57506000925060019150829050610c29565b9250600091508190505b9450945094915050565b60606000610c4083610c72565b604080516020808252818301909252919250600091906020820181803683375050509182525060208101929092525090565b600060ff8216601f8111156107aa576040517fb3512b0c00000000000000000000000000000000000000000000000000000000815260040160405180910390fd5b634e487b7160e01b600052604160045260246000fd5b60405160c0810167ffffffffffffffff81118282101715610cec57610cec610cb3565b60405290565b604051601f8201601f1916810167ffffffffffffffff81118282101715610d1b57610d1b610cb3565b604052919050565b600082601f830112610d3457600080fd5b81356020830160008067ffffffffffffffff841115610d5557610d55610cb3565b50601f8301601f1916602001610d6a81610cf2565b915050828152858383011115610d7f57600080fd5b82826020830137600092810160200192909252509392505050565b80356001600160a01b0381168114610db157600080fd5b919050565b600082601f830112610dc757600080fd5b813567ffffffffffffffff811115610de157610de1610cb3565b8060051b610df160208201610cf2565b91825260208185018101929081019086841115610e0d57600080fd5b6020860192505b83831015610e5457823567ffffffffffffffff811115610e3357600080fd5b610e42886020838a0101610d23565b83525060209283019290910190610e14565b9695505050505050565b60008060408385031215610e7157600080fd5b823567ffffffffffffffff811115610e8857600080fd5b830160c08186031215610e9a57600080fd5b610ea2610cc9565b813567ffffffffffffffff811115610eb957600080fd5b610ec587828501610d23565b825250602082013567ffffffffffffffff811115610ee257600080fd5b610eee87828501610d23565b602083015250604082013567ffffffffffffffff811115610f0e57600080fd5b610f1a87828501610d23565b60408301525060608281013590820152610f3660808301610d9a565b608082015260a082013567ffffffffffffffff811115610f5557600080fd5b610f6187828501610db6565b60a083015250925050602083013567ffffffffffffffff811115610f8457600080fd5b610f9085828601610d23565b9150509250929050565b600060208284031215610fac57600080fd5b813567ffffffffffffffff811115610fc357600080fd5b610fcf84828501610d23565b949350505050565b60005b83811015610ff2578181015183820152602001610fda565b50506000910152565b60008151808452611013816020860160208601610fd7565b601f01601f19169290920160200192915050565b60a08152600061103a60a0830188610ffb565b86602084015282810360408401526110528187610ffb565b9150508360608301526001600160a01b03831660808301529695505050505050565b7fff000000000000000000000000000000000000000000000000000000000000008816815260e0602082015260006110af60e0830189610ffb565b82810360408401526110c18189610ffb565b606084018890526001600160a01b038716608085015260a0840186905283810360c08501528451808252602080870193509091019060005b818110156111175783518352602093840193909201916001016110f9565b50909b9a5050505050505050505050565b602081526000825160a0602084015261114460c0840182610ffb565b9050602084015160408401526040840151601f1984830301606085015261116b8282610ffb565b915050606084015160808401526001600160a01b0360808501511660a08401528091505092915050565b600082516111a7818460208701610fd7565b9190910192915050565b600181811c908216806111c557607f821691505b6020821081036111e557634e487b7160e01b600052602260045260246000fd5b50919050565b601f82111561123557806000526020600020601f840160051c810160208510156112125750805b601f840160051c820191505b81811015611232576000815560010161121e565b50505b505050565b815167ffffffffffffffff81111561125457611254610cb3565b6112688161126284546111b1565b846111eb565b6020601f82116001811461129c57600083156112845750848201515b600019600385901b1c1916600184901b178455611232565b600084815260208120601f198516915b828110156112cc57878501518255602094850194600190920191016112ac565b50848210156112ea5786840151600019600387901b60f8161c191681555b50505050600190811b01905550565b60208152600080835461130b816111b1565b806020860152600182166000811461132a57600181146113465761137a565b60ff1983166040870152604082151560051b870101935061137a565b86600052602060002060005b8381101561137157815488820160400152600190910190602001611352565b87016040019450505b509195945050505050565b6000602082016020835280845180835260408501915060408160051b86010192506020860160005b828110156113de57603f198786030184526113c9858351610ffb565b945060209384019391909101906001016113ad565b50929695505050505050565b634e487b7160e01b600052602160045260246000fdfea2646970667358221220d0236b0b558f9e617fcdf5722f6f25bb2fe019dd0a722ee0925d6fda0823ddc064736f6c634300081b0033",
  "linkReferences": {},
  "deployedLinkReferences": {}
}