{
  "_format": "hh-sol-artifact-1",
  "contractName": "AuthChain",
  "sourceName": "contracts/AuthChain.sol",
  "abi": [
    {
      "inputs": [
        {
          "internalType": "address",
          "name": "_owner",
          "type": "address"
        }
      ],
      "stateMutability": "nonpayable",
      "type": "constructor"
    },
    {
      "inputs": [],
      "name": "ECDSAInvalidSignature",
      "type": "error"
    },
    {
      "inputs": [
        {
          "internalType": "uint256",
          "name": "length",
          "type": "uint256"
        }
      ],
      "name": "ECDSAInvalidSignatureLength",
      "type": "error"
    },
    {
      "inputs": [
        {
          "internalType": "bytes32",
          "name": "s",
          "type": "bytes32"
        }
      ],
      "name": "ECDSAInvalidSignatureS",
      "type": "error"
    },
    {
      "inputs": [],
      "name": "InvalidShortString",
      "type": "error"
    },
    {
      "inputs": [
        {
          "internalType": "address",
          "name": "signer",
          "type": "address"
        },
        {
          "internalType": "bool",
          "name": "result",
          "type": "bool"
        }
      ],
      "name": "InvalidSignature",
      "type": "error"
    },
    {
      "inputs": [
        {
          "internalType": "string",
          "name": "str",
          "type": "string"
        }
      ],
      "name": "StringTooLong",
      "type": "error"
    },
    {
      "anonymous": false,
      "inputs": [
        {
          "indexed": false,
          "internalType": "bytes32",
          "name": "structHash",
          "type": "bytes32"
        },
        {
          "indexed": false,
          "internalType": "bytes32",
          "name": "digest",
          "type": "bytes32"
        },
        {
          "indexed": false,
          "internalType": "address",
          "name": "signer",
          "type": "address"
        }
      ],
      "name": "DebugHash",
      "type": "event"
    },
    {
      "anonymous": false,
      "inputs": [],
      "name": "EIP712DomainChanged",
      "type": "event"
    },
    {
      "anonymous": false,
      "inputs": [
        {
          "indexed": false,
          "internalType": "bytes32",
          "name": "structHash",
          "type": "bytes32"
        }
      ],
      "name": "ItemCreated",
      "type": "event"
    },
    {
      "inputs": [
        {
          "components": [
            {
              "internalType": "string",
              "name": "name",
              "type": "string"
            },
            {
              "internalType": "string",
              "name": "uniqueId",
              "type": "string"
            },
            {
              "internalType": "string",
              "name": "serial",
              "type": "string"
            },
            {
              "internalType": "uint256",
              "name": "date",
              "type": "uint256"
            },
            {
              "internalType": "address",
              "name": "owner",
              "type": "address"
            },
            {
              "internalType": "string[]",
              "name": "metadata",
              "type": "string[]"
            }
          ],
          "internalType": "struct AuthChain.Certificate",
          "name": "certificate",
          "type": "tuple"
        },
        {
          "internalType": "bytes",
          "name": "signature",
          "type": "bytes"
        }
      ],
      "name": "createItem",
      "outputs": [],
      "stateMutability": "nonpayable",
      "type": "function"
    },
    {
      "inputs": [],
      "name": "eip712Domain",
      "outputs": [
        {
          "internalType": "bytes1",
          "name": "fields",
          "type": "bytes1"
        },
        {
          "internalType": "string",
          "name": "name",
          "type": "string"
        },
        {
          "internalType": "string",
          "name": "version",
          "type": "string"
        },
        {
          "internalType": "uint256",
          "name": "chainId",
          "type": "uint256"
        },
        {
          "internalType": "address",
          "name": "verifyingContract",
          "type": "address"
        },
        {
          "internalType": "bytes32",
          "name": "salt",
          "type": "bytes32"
        },
        {
          "internalType": "uint256[]",
          "name": "extensions",
          "type": "uint256[]"
        }
      ],
      "stateMutability": "view",
      "type": "function"
    },
    {
      "inputs": [
        {
          "internalType": "bytes32",
          "name": "structHash",
          "type": "bytes32"
        }
      ],
      "name": "getItem",
      "outputs": [
        {
          "components": [
            {
              "internalType": "string",
              "name": "name",
              "type": "string"
            },
            {
              "internalType": "bytes32",
              "name": "uniqueId",
              "type": "bytes32"
            },
            {
              "internalType": "string",
              "name": "serial",
              "type": "string"
            },
            {
              "internalType": "uint256",
              "name": "date",
              "type": "uint256"
            },
            {
              "internalType": "address",
              "name": "owner",
              "type": "address"
            }
          ],
          "internalType": "struct AuthChain.Item",
          "name": "",
          "type": "tuple"
        }
      ],
      "stateMutability": "view",
      "type": "function"
    },
    {
      "inputs": [],
      "name": "getOwner",
      "outputs": [
        {
          "internalType": "address",
          "name": "",
          "type": "address"
        }
      ],
      "stateMutability": "view",
      "type": "function"
    },
    {
      "inputs": [
        {
          "internalType": "bytes32",
          "name": "",
          "type": "bytes32"
        }
      ],
      "name": "items",
      "outputs": [
        {
          "internalType": "string",
          "name": "name",
          "type": "string"
        },
        {
          "internalType": "bytes32",
          "name": "uniqueId",
          "type": "bytes32"
        },
        {
          "internalType": "string",
          "name": "serial",
          "type": "string"
        },
        {
          "internalType": "uint256",
          "name": "date",
          "type": "uint256"
        },
        {
          "internalType": "address",
          "name": "owner",
          "type": "address"
        }
      ],
      "stateMutability": "view",
      "type": "function"
    },
    {
      "inputs": [
        {
          "components": [
            {
              "internalType": "string",
              "name": "name",
              "type": "string"
            },
            {
              "internalType": "string",
              "name": "uniqueId",
              "type": "string"
            },
            {
              "internalType": "string",
              "name": "serial",
              "type": "string"
            },
            {
              "internalType": "uint256",
              "name": "date",
              "type": "uint256"
            },
            {
              "internalType": "address",
              "name": "owner",
              "type": "address"
            },
            {
              "internalType": "string[]",
              "name": "metadata",
              "type": "string[]"
            }
          ],
          "internalType": "struct AuthChain.Certificate",
          "name": "certificate",
          "type": "tuple"
        },
        {
          "internalType": "bytes",
          "name": "signature",
          "type": "bytes"
        }
      ],
      "name": "verifyAssetSignature",
      "outputs": [
        {
          "internalType": "bool",
          "name": "",
          "type": "bool"
        },
        {
          "internalType": "bytes32",
          "name": "",
          "type": "bytes32"
        }
      ],
      "stateMutability": "nonpayable",
      "type": "function"
    }
  ],
  "bytecode": "0x61018060405234801561001157600080fd5b5060405161173c38038061173c833981016040819052610030916101ab565b604080518082018252600f81526e086cae4e8d2ccd2c6c2e8ca82eae8d608b1b602080830191909152825180840190935260018352603160f81b908301529061007a826000610131565b61012052610089816001610131565b61014052815160208084019190912060e052815190820120610100524660a05261011660e05161010051604080517f8b73c3c69bb8fe3d512ecc4cf759cc79239f7b179b0ffacaa9a75d522b39400f60208201529081019290925260608201524660808201523060a082015260009060c00160405160208183030381529060405280519060200120905090565b60805250503060c0526001600160a01b0316610160526103aa565b600060208351101561014d5761014683610164565b905061015e565b81610158848261027a565b5060ff90505b92915050565b600080829050601f81511115610198578260405163305a27a960e01b815260040161018f9190610338565b60405180910390fd5b80516101a382610386565b179392505050565b6000602082840312156101bd57600080fd5b81516001600160a01b03811681146101d457600080fd5b9392505050565b634e487b7160e01b600052604160045260246000fd5b600181811c9082168061020557607f821691505b60208210810361022557634e487b7160e01b600052602260045260246000fd5b50919050565b601f82111561027557806000526020600020601f840160051c810160208510156102525750805b601f840160051c820191505b81811015610272576000815560010161025e565b50505b505050565b81516001600160401b03811115610293576102936101db565b6102a7816102a184546101f1565b8461022b565b6020601f8211600181146102db57600083156102c35750848201515b600019600385901b1c1916600184901b178455610272565b600084815260208120601f198516915b8281101561030b57878501518255602094850194600190920191016102eb565b50848210156103295786840151600019600387901b60f8161c191681555b50505050600190811b01905550565b602081526000825180602084015260005b818110156103665760208186018101516040868401015201610349565b506000604082850101526040601f19601f83011684010191505092915050565b805160208083015191908110156102255760001960209190910360031b1b16919050565b60805160a05160c05160e051610100516101205161014051610160516113266104166000396000818161010b01526104ee015260006107d9015260006107a7015260006108d9015260006108b10152600061080c015260006108360152600061086001526113266000f3fe608060405234801561001057600080fd5b50600436106100725760003560e01c806384b0196e1161005057806384b0196e146100e3578063893d20e8146100fe578063aa0372e71461013557600080fd5b80633f5196ab1461007757806348f343f31461008c5780637cb1ba54146100b9575b600080fd5b61008a610085366004610e24565b610155565b005b61009f61009a366004610f60565b610276565b6040516100b0959493929190610fbf565b60405180910390f35b6100cc6100c7366004610e24565b6103be565b6040805192151583526020830191909152016100b0565b6100eb610531565b6040516100b0979695949392919061100c565b6040516001600160a01b037f00000000000000000000000000000000000000000000000000000000000000001681526020016100b0565b610148610143366004610f60565b610593565b6040516100b091906110c0565b60008061016284846103be565b91509150816101bb5760808401516040517f5d612b590000000000000000000000000000000000000000000000000000000081526001600160a01b03909116600482015282151560248201526044015b60405180910390fd5b6000818152600260205260409020845181906101d790826111b6565b50604085015160028201906101ec90826111b6565b506001810182905560808501516004820180547fffffffffffffffffffffffff0000000000000000000000000000000000000000166001600160a01b03909216919091179055606085015160038201556040518281527f8809eb942632c1a8a762c6e01da1ad945ee32d14ef3a4b88bf5de54287a8a4da9060200160405180910390a15050505050565b6002602052600090815260409020805481906102919061112d565b80601f01602080910402602001604051908101604052809291908181526020018280546102bd9061112d565b801561030a5780601f106102df5761010080835404028352916020019161030a565b820191906000526020600020905b8154815290600101906020018083116102ed57829003601f168201915b5050505050908060010154908060020180546103259061112d565b80601f01602080910402602001604051908101604052809291908181526020018280546103519061112d565b801561039e5780601f106103735761010080835404028352916020019161039e565b820191906000526020600020905b81548152906001019060200180831161038157829003601f168201915b5050505060038301546004909301549192916001600160a01b0316905085565b60008060008460a001516040516020016103d89190611275565b60408051808303601f1901815282825280516020918201208851805190830120898301518051908401208a8501518051908501206060808d01516080808f01517f1d62f707996bec2e68227adde500d923521c8e72658f98eee315781c94cf5956898c01528a8a01969096529189019390935287015260a08601526001600160a01b031660c085015260e0808501829052835180860390910181526101009094019092528251920191909120909150600061049282610728565b905060006104a08288610776565b60408051858152602081018590526001600160a01b0383168183015290519192507fecd1875085f403ebfb7a621c8bb0ffb6ce0dea42cc8146380ed1a6988eb15a98919081900360600190a17f00000000000000000000000000000000000000000000000000000000000000006001600160a01b0316816001600160a01b0316148395509550505050509250929050565b6000606080600080600060606105456107a0565b61054d6107d2565b604080516000808252602082019092527f0f000000000000000000000000000000000000000000000000000000000000009b939a50919850469750309650945092509050565b6040805160a08101825260608082526000602083018190529282018190528101829052608081019190915260008281526002602052604090819020815160a081019092528054829082906105e69061112d565b80601f01602080910402602001604051908101604052809291908181526020018280546106129061112d565b801561065f5780601f106106345761010080835404028352916020019161065f565b820191906000526020600020905b81548152906001019060200180831161064257829003601f168201915b50505050508152602001600182015481526020016002820180546106829061112d565b80601f01602080910402602001604051908101604052809291908181526020018280546106ae9061112d565b80156106fb5780601f106106d0576101008083540402835291602001916106fb565b820191906000526020600020905b8154815290600101906020018083116106de57829003601f168201915b5050509183525050600382015460208201526004909101546001600160a01b031660409091015292915050565b60006107706107356107ff565b836040517f19010000000000000000000000000000000000000000000000000000000000008152600281019290925260228201526042902090565b92915050565b600080600080610786868661092a565b9250925092506107968282610977565b5090949350505050565b60606107cd7f00000000000000000000000000000000000000000000000000000000000000006000610a7f565b905090565b60606107cd7f00000000000000000000000000000000000000000000000000000000000000006001610a7f565b6000306001600160a01b037f00000000000000000000000000000000000000000000000000000000000000001614801561085857507f000000000000000000000000000000000000000000000000000000000000000046145b1561088257507f000000000000000000000000000000000000000000000000000000000000000090565b6107cd604080517f8b73c3c69bb8fe3d512ecc4cf759cc79239f7b179b0ffacaa9a75d522b39400f60208201527f0000000000000000000000000000000000000000000000000000000000000000918101919091527f000000000000000000000000000000000000000000000000000000000000000060608201524660808201523060a082015260009060c00160405160208183030381529060405280519060200120905090565b600080600083516041036109645760208401516040850151606086015160001a61095688828585610b2a565b955095509550505050610970565b50508151600091506002905b9250925092565b600082600381111561098b5761098b6112da565b03610994575050565b60018260038111156109a8576109a86112da565b036109df576040517ff645eedf00000000000000000000000000000000000000000000000000000000815260040160405180910390fd5b60028260038111156109f3576109f36112da565b03610a2d576040517ffce698f7000000000000000000000000000000000000000000000000000000008152600481018290526024016101b2565b6003826003811115610a4157610a416112da565b03610a7b576040517fd78bce0c000000000000000000000000000000000000000000000000000000008152600481018290526024016101b2565b5050565b606060ff8314610a9957610a9283610bf9565b9050610770565b818054610aa59061112d565b80601f0160208091040260200160405190810160405280929190818152602001828054610ad19061112d565b8015610b1e5780601f10610af357610100808354040283529160200191610b1e565b820191906000526020600020905b815481529060010190602001808311610b0157829003601f168201915b50505050509050610770565b600080807f7fffffffffffffffffffffffffffffff5d576e7357a4501ddfe92f46681b20a0841115610b655750600091506003905082610bef565b604080516000808252602082018084528a905260ff891692820192909252606081018790526080810186905260019060a0016020604051602081039080840390855afa158015610bb9573d6000803e3d6000fd5b5050604051601f1901519150506001600160a01b038116610be557506000925060019150829050610bef565b9250600091508190505b9450945094915050565b60606000610c0683610c38565b604080516020808252818301909252919250600091906020820181803683375050509182525060208101929092525090565b600060ff8216601f811115610770576040517fb3512b0c00000000000000000000000000000000000000000000000000000000815260040160405180910390fd5b634e487b7160e01b600052604160045260246000fd5b60405160c0810167ffffffffffffffff81118282101715610cb257610cb2610c79565b60405290565b604051601f8201601f1916810167ffffffffffffffff81118282101715610ce157610ce1610c79565b604052919050565b600082601f830112610cfa57600080fd5b81356020830160008067ffffffffffffffff841115610d1b57610d1b610c79565b50601f8301601f1916602001610d3081610cb8565b915050828152858383011115610d4557600080fd5b82826020830137600092810160200192909252509392505050565b80356001600160a01b0381168114610d7757600080fd5b919050565b600082601f830112610d8d57600080fd5b813567ffffffffffffffff811115610da757610da7610c79565b8060051b610db760208201610cb8565b91825260208185018101929081019086841115610dd357600080fd5b6020860192505b83831015610e1a57823567ffffffffffffffff811115610df957600080fd5b610e08886020838a0101610ce9565b83525060209283019290910190610dda565b9695505050505050565b60008060408385031215610e3757600080fd5b823567ffffffffffffffff811115610e4e57600080fd5b830160c08186031215610e6057600080fd5b610e68610c8f565b813567ffffffffffffffff811115610e7f57600080fd5b610e8b87828501610ce9565b825250602082013567ffffffffffffffff811115610ea857600080fd5b610eb487828501610ce9565b602083015250604082013567ffffffffffffffff811115610ed457600080fd5b610ee087828501610ce9565b60408301525060608281013590820152610efc60808301610d60565b608082015260a082013567ffffffffffffffff811115610f1b57600080fd5b610f2787828501610d7c565b60a083015250925050602083013567ffffffffffffffff811115610f4a57600080fd5b610f5685828601610ce9565b9150509250929050565b600060208284031215610f7257600080fd5b5035919050565b6000815180845260005b81811015610f9f57602081850181015186830182015201610f83565b506000602082860101526020601f19601f83011685010191505092915050565b60a081526000610fd260a0830188610f79565b8660208401528281036040840152610fea8187610f79565b9150508360608301526001600160a01b03831660808301529695505050505050565b7fff000000000000000000000000000000000000000000000000000000000000008816815260e06020820152600061104760e0830189610f79565b82810360408401526110598189610f79565b606084018890526001600160a01b038716608085015260a0840186905283810360c08501528451808252602080870193509091019060005b818110156110af578351835260209384019390920191600101611091565b50909b9a5050505050505050505050565b602081526000825160a060208401526110dc60c0840182610f79565b9050602084015160408401526040840151601f198483030160608501526111038282610f79565b915050606084015160808401526001600160a01b0360808501511660a08401528091505092915050565b600181811c9082168061114157607f821691505b60208210810361116157634e487b7160e01b600052602260045260246000fd5b50919050565b601f8211156111b157806000526020600020601f840160051c8101602085101561118e5750805b601f840160051c820191505b818110156111ae576000815560010161119a565b50505b505050565b815167ffffffffffffffff8111156111d0576111d0610c79565b6111e4816111de845461112d565b84611167565b6020601f82116001811461121857600083156112005750848201515b600019600385901b1c1916600184901b1784556111ae565b600084815260208120601f198516915b828110156112485787850151825560209485019460019092019101611228565b50848210156112665786840151600019600387901b60f8161c191681555b50505050600190811b01905550565b6000602082016020835280845180835260408501915060408160051b86010192506020860160005b828110156112ce57603f198786030184526112b9858351610f79565b9450602093840193919091019060010161129d565b50929695505050505050565b634e487b7160e01b600052602160045260246000fdfea26469706673582212205aa573845513ed4347cdb44823007c4d0ec30e458bf9c64da4e813e9359906cd64736f6c634300081b0033",
  "linkReferences": {},
  "deployedLinkReferences": {}
}